{
  "_format": "hh-sol-artifact-1",
  "contractName": "BuyMeACoffee",
  "sourceName": "contracts/BuyMeACoffee.sol",
  "abi": [
    {
      "inputs": [],
      "stateMutability": "nonpayable",
      "type": "constructor"
    },
    {
      "inputs": [],
      "name": "Unauthorized",
      "type": "error"
    },
    {
      "anonymous": false,
      "inputs": [
        {
          "indexed": false,
          "internalType": "address",
          "name": "from",
          "type": "address"
        },
        {
          "indexed": false,
          "internalType": "uint256",
          "name": "timestamp",
          "type": "uint256"
        },
        {
          "indexed": false,
          "internalType": "string",
          "name": "name",
          "type": "string"
        },
        {
          "indexed": false,
          "internalType": "string",
          "name": "message",
          "type": "string"
        }
      ],
      "name": "NewMemo",
      "type": "event"
    },
    {
      "inputs": [
        {
          "internalType": "string",
          "name": "_name",
          "type": "string"
        },
        {
          "internalType": "string",
          "name": "_message",
          "type": "string"
        }
      ],
      "name": "buyCoffee",
      "outputs": [],
      "stateMutability": "payable",
      "type": "function"
    },
    {
      "inputs": [],
      "name": "getMemos",
      "outputs": [
        {
          "components": [
            {
              "internalType": "address",
              "name": "from",
              "type": "address"
            },
            {
              "internalType": "uint256",
              "name": "timestamp",
              "type": "uint256"
            },
            {
              "internalType": "string",
              "name": "name",
              "type": "string"
            },
            {
              "internalType": "string",
              "name": "message",
              "type": "string"
            }
          ],
          "internalType": "struct BuyMeACoffee.Memo[]",
          "name": "",
          "type": "tuple[]"
        }
      ],
      "stateMutability": "view",
      "type": "function"
    },
    {
      "inputs": [
        {
          "internalType": "address payable",
          "name": "toAddr",
          "type": "address"
        }
      ],
      "name": "withdrawTips",
      "outputs": [],
      "stateMutability": "nonpayable",
      "type": "function"
    }
  ],
  "bytecode": "0x608060405234801561001057600080fd5b5033600160006101000a81548173ffffffffffffffffffffffffffffffffffffffff021916908373ffffffffffffffffffffffffffffffffffffffff160217905550610b6b806100616000396000f3fe6080604052600436106100345760003560e01c8063204206e114610039578063865c517214610055578063ee69785014610080575b600080fd5b610053600480360381019061004e9190610612565b6100a9565b005b34801561006157600080fd5b5061006a61021c565b6040516100779190610895565b60405180910390f35b34801561008c57600080fd5b506100a760048036038101906100a291906105e9565b6103ff565b005b600034116100ec576040517f08c379a00000000000000000000000000000000000000000000000000000000081526004016100e3906108b7565b60405180910390fd5b600060405180608001604052803373ffffffffffffffffffffffffffffffffffffffff16815260200142815260200184815260200183815250908060018154018082558091505060019003906000526020600020906004020160009091909190915060008201518160000160006101000a81548173ffffffffffffffffffffffffffffffffffffffff021916908373ffffffffffffffffffffffffffffffffffffffff1602179055506020820151816001015560408201518160020190805190602001906101bb9291906104c9565b5060608201518160030190805190602001906101d89291906104c9565b5050507fc56140e05f516509ae28110e0f72e17558a7561630dad2647c3ae87d986e365c334284846040516102109493929190610842565b60405180910390a15050565b60606000805480602002602001604051908101604052809291908181526020016000905b828210156103f657838290600052602060002090600402016040518060800160405290816000820160009054906101000a900473ffffffffffffffffffffffffffffffffffffffff1673ffffffffffffffffffffffffffffffffffffffff1673ffffffffffffffffffffffffffffffffffffffff168152602001600182015481526020016002820180546102d390610a23565b80601f01602080910402602001604051908101604052809291908181526020018280546102ff90610a23565b801561034c5780601f106103215761010080835404028352916020019161034c565b820191906000526020600020905b81548152906001019060200180831161032f57829003601f168201915b5050505050815260200160038201805461036590610a23565b80601f016020809104026020016040519081016040528092919081815260200182805461039190610a23565b80156103de5780601f106103b3576101008083540402835291602001916103de565b820191906000526020600020905b8154815290600101906020018083116103c157829003601f168201915b50505050508152505081526020019060010190610240565b50505050905090565b600160009054906101000a900473ffffffffffffffffffffffffffffffffffffffff168073ffffffffffffffffffffffffffffffffffffffff163373ffffffffffffffffffffffffffffffffffffffff1614610487576040517f82b4290000000000000000000000000000000000000000000000000000000000815260040160405180910390fd5b8173ffffffffffffffffffffffffffffffffffffffff166108fc479081150290604051600060405180830381858888f193505050506104c557600080fd5b5050565b8280546104d590610a23565b90600052602060002090601f0160209004810192826104f7576000855561053e565b82601f1061051057805160ff191683800117855561053e565b8280016001018555821561053e579182015b8281111561053d578251825591602001919060010190610522565b5b50905061054b919061054f565b5090565b5b80821115610568576000816000905550600101610550565b5090565b600061057f61057a846108fc565b6108d7565b90508281526020810184848401111561059757600080fd5b6105a28482856109e1565b509392505050565b6000813590506105b981610b1e565b92915050565b600082601f8301126105d057600080fd5b81356105e084826020860161056c565b91505092915050565b6000602082840312156105fb57600080fd5b6000610609848285016105aa565b91505092915050565b6000806040838503121561062557600080fd5b600083013567ffffffffffffffff81111561063f57600080fd5b61064b858286016105bf565b925050602083013567ffffffffffffffff81111561066857600080fd5b610674858286016105bf565b9150509250929050565b600061068a83836107ba565b905092915050565b61069b81610993565b82525050565b6106aa81610993565b82525050565b60006106bb8261093d565b6106c58185610960565b9350836020820285016106d78561092d565b8060005b8581101561071357848403895281516106f4858261067e565b94506106ff83610953565b925060208a019950506001810190506106db565b50829750879550505050505092915050565b600061073082610948565b61073a8185610971565b935061074a8185602086016109f0565b61075381610ae4565b840191505092915050565b600061076982610948565b6107738185610982565b93506107838185602086016109f0565b61078c81610ae4565b840191505092915050565b60006107a4601a83610982565b91506107af82610af5565b602082019050919050565b60006080830160008301516107d26000860182610692565b5060208301516107e56020860182610824565b50604083015184820360408601526107fd8282610725565b915050606083015184820360608601526108178282610725565b9150508091505092915050565b61082d816109d7565b82525050565b61083c816109d7565b82525050565b600060808201905061085760008301876106a1565b6108646020830186610833565b8181036040830152610876818561075e565b9050818103606083015261088a818461075e565b905095945050505050565b600060208201905081810360008301526108af81846106b0565b905092915050565b600060208201905081810360008301526108d081610797565b9050919050565b60006108e16108f2565b90506108ed8282610a55565b919050565b6000604051905090565b600067ffffffffffffffff82111561091757610916610ab5565b5b61092082610ae4565b9050602081019050919050565b6000819050602082019050919050565b600081519050919050565b600081519050919050565b6000602082019050919050565b600082825260208201905092915050565b600082825260208201905092915050565b600082825260208201905092915050565b600061099e826109b7565b9050919050565b60006109b0826109b7565b9050919050565b600073ffffffffffffffffffffffffffffffffffffffff82169050919050565b6000819050919050565b82818337600083830152505050565b60005b83811015610a0e5780820151818401526020810190506109f3565b83811115610a1d576000848401525b50505050565b60006002820490506001821680610a3b57607f821691505b60208210811415610a4f57610a4e610a86565b5b50919050565b610a5e82610ae4565b810181811067ffffffffffffffff82111715610a7d57610a7c610ab5565b5b80604052505050565b7f4e487b7100000000000000000000000000000000000000000000000000000000600052602260045260246000fd5b7f4e487b7100000000000000000000000000000000000000000000000000000000600052604160045260246000fd5b6000601f19601f8301169050919050565b7f53656e64203e20302045544820746f2062757920636f66666565000000000000600082015250565b610b27816109a5565b8114610b3257600080fd5b5056fea26469706673582212204bba9864096b0467ca8a2cccb1bb2338d4739527ad56735a97f794688f8390d364736f6c63430008040033",
  "linkReferences": {},
  "deployedLinkReferences": {}
}